{
  "contractName": "MockV3Aggregator",
  "abi": [
    {
      "inputs": [
        {
          "internalType": "int256",
          "name": "_initialPrice",
          "type": "int256"
        }
      ],
      "stateMutability": "nonpayable",
      "type": "constructor"
    },
    {
      "inputs": [],
      "name": "price",
      "outputs": [
        {
          "internalType": "int256",
          "name": "",
          "type": "int256"
        }
      ],
      "stateMutability": "view",
      "type": "function",
      "constant": true
    },
    {
      "inputs": [],
      "name": "latestRoundData",
      "outputs": [
        {
          "internalType": "uint80",
          "name": "roundId",
          "type": "uint80"
        },
        {
          "internalType": "int256",
          "name": "answer",
          "type": "int256"
        },
        {
          "internalType": "uint256",
          "name": "startedAt",
          "type": "uint256"
        },
        {
          "internalType": "uint256",
          "name": "updatedAt",
          "type": "uint256"
        },
        {
          "internalType": "uint80",
          "name": "answeredInRound",
          "type": "uint80"
        }
      ],
      "stateMutability": "view",
      "type": "function",
      "constant": true
    },
    {
      "inputs": [
        {
          "internalType": "int256",
          "name": "_price",
          "type": "int256"
        }
      ],
      "name": "setPrice",
      "outputs": [],
      "stateMutability": "nonpayable",
      "type": "function"
    }
  ],
  "bytecode": "0x608060405234801561001057600080fd5b5060405161014838038061014883398101604081905261002f91610037565b600055610050565b60006020828403121561004957600080fd5b5051919050565b60ea8061005e6000396000f3fe6080604052348015600f57600080fd5b5060043610603c5760003560e01c8063a035b1fe146041578063f7a3080614605c578063feaf968c14606e575b600080fd5b604960005481565b6040519081526020015b60405180910390f35b606c6067366004609c565b600055565b005b60008054604080518381526020810192909252810182905260608101829052608081019190915260a0016053565b60006020828403121560ad57600080fd5b503591905056fea26469706673582212208b5522f3c37b844b85d856d1c2441073a274b870436ba706bab001c694a5614664736f6c63430008150033",
  "immutableReferences": {},
  "source": "// SPDX-License-Identifier: MIT\npragma solidity ^0.8.21;\n\ncontract MockV3Aggregator {\n    int256 public price;\n    \n    constructor(int256 _initialPrice) {\n        price = _initialPrice;\n    }\n    \n    function latestRoundData() public view returns (\n        uint80 roundId,\n        int256 answer,\n        uint256 startedAt,\n        uint256 updatedAt,\n        uint80 answeredInRound\n    ) {\n        return (0, price, 0, 0, 0);\n    }\n\n    function setPrice(int256 _price) public {\n        price = _price;\n    }\n}\n",
  "sourcePath": "/Users/saikiransurapalli/Desktop/music-nft-app/contracts/MockV3Aggregator.sol",
  "compiler": {
    "name": "solc",
    "version": "0.8.21+commit.d9974bed.Emscripten.clang"
  },
  "schemaVersion": "3.4.16",
  "updatedAt": "2024-09-19T13:17:04.700Z",
  "networkType": "ethereum",
  "devdoc": {
    "kind": "dev",
    "methods": {},
    "version": 1
  },
  "userdoc": {
    "kind": "user",
    "methods": {},
    "version": 1
  }
}